S00B0000534444452E733139C9
S113000000300020010100004D01000051010000FA
S113001000000000000000000000000000000000DC
S11300200000000000000000000000005501000076
S11300300000000000000000590100005D01000004
S1130040650100006D010000750100007D010000E4
S1130050850100008D010000950100009D01000054
S1130060A5010000AD010000B5010000BD010000C4
S1130070C5010000CD010000D5010000DD01000034
S1130080E5010000ED010000F5010000FD010000A4
S1130090050200000D020000D51F00001D02000033
S11300A0250200002D020000350200003D02000080
S11300B0450200004D020000550200005D020000F0
S11300C09445000080F0FF1F28000000A8F0FF1FE7
S11300D04021000010B5002304E004680C600433E0
S11300E0043004319342F8D310BDC046002303E02A
S11300F000220260043304308B42F9D37047C046B7
S113010010B572B601F058F90D4B07E0186859683C
S11301101C000C349A68FFF7DDFF2300094A934260
S1130120F4D306E018681C0008345968FFF7DEFFB2
S11301302300054A9342F5D362B601F071FFFEE74E
S1130140C0000000CC000000D4000000FEE7C04660
S1130150FEE7C046FEE7C046FEE7C046FEE7C046EF
S1130160FEE7C04610B500F05BFF10BD10B500F00F
S113017063FF10BD10B500F06BFF10BD10B500F0AB
S113018073FF10BD10B5FFF7EBFF10BD10B5FFF7FF
S1130190E7FF10BD10B5FFF7E3FF10BD10B5FFF783
S11301A0DFFF10BD10B500F0E1FF10BD10B500F089
S11301B0EDFF10BD10B501F0ABF810BD10B501F0A6
S11301C0BFF810BD10B500F0F1FF10BD10B501F07F
S11301D0CFF810BD10B501F0DDF810BD10B5FFF774
S11301E0BFFF10BD10B5FFF7BBFF10BD10B5FFF783
S11301F0B7FF10BD10B5FFF7B3FF10BD10B5FFF783
S1130200AFFF10BD10B5FFF7ABFF10BD10B5FFF782
S1130210A7FF10BD10B5FFF7A3FF10BD10B5FFF782
S11302209FFF10BD10B5FFF79BFF10BD10B5FFF782
S113023097FF10BD10B5FFF793FF10BD10B5FFF782
S11302408FFF10BD10B5FFF78BFF10BD10B5FFF782
S113025087FF10BD10B5FFF783FF10BD10B5FFF782
S11302607FFF10BDFFFFFFFFFFFFFFFFFFFFFFFF4B
S1130270FFFFFFFFFFFFFFFFFFFFFFFFFFFFFFFF8A
S1130280FFFFFFFFFFFFFFFFFFFFFFFFFFFFFFFF7A
S1130290FFFFFFFFFFFFFFFFFFFFFFFFFFFFFFFF6A
S11302A0FFFFFFFFFFFFFFFFFFFFFFFFFFFFFFFF5A
S11302B0FFFFFFFFFFFFFFFFFFFFFFFFFFFFFFFF4A
S11302C0FFFFFFFFFFFFFFFFFFFFFFFFFFFFFFFF3A
S11302D0FFFFFFFFFFFFFFFFFFFFFFFFFFFFFFFF2A
S11302E0FFFFFFFFFFFFFFFFFFFFFFFFFFFFFFFF1A
S11302F0FFFFFFFFFFFFFFFFFFFFFFFFFFFFFFFF0A
S1130300FFFFFFFFFFFFFFFFFFFFFFFFFFFFFFFFF9
S1130310FFFFFFFFFFFFFFFFFFFFFFFFFFFFFFFFE9
S1130320FFFFFFFFFFFFFFFFFFFFFFFFFFFFFFFFD9
S1130330FFFFFFFFFFFFFFFFFFFFFFFFFFFFFFFFC9
S1130340FFFFFFFFFFFFFFFFFFFFFFFFFFFFFFFFB9
S1130350FFFFFFFFFFFFFFFFFFFFFFFFFFFFFFFFA9
S1130360FFFFFFFFFFFFFFFFFFFFFFFFFFFFFFFF99
S1130370FFFFFFFFFFFFFFFFFFFFFFFFFFFFFFFF89
S1130380FFFFFFFFFFFFFFFFFFFFFFFFFFFFFFFF79
S1130390FFFFFFFFFFFFFFFFFFFFFFFFFFFFFFFF69
S11303A0FFFFFFFFFFFFFFFFFFFFFFFFFFFFFFFF59
S11303B0FFFFFFFFFFFFFFFFFFFFFFFFFFFFFFFF49
S11303C0FFFFFFFFFFFFFFFFFFFFFFFFFFFFFFFF39
S11303D0FFFFFFFFFFFFFFFFFFFFFFFFFFFFFFFF29
S11303E0FFFFFFFFFFFFFFFFFFFFFFFFFFFFFFFF19
S11303F0FFFFFFFFFFFFFFFFFFFFFFFFFFFFFFFF09
S1130400FFFFFFFFFFFFFFFFFFFFFFFFFEFFFFFFF9
S113041090B585B000AFF860B9607A60BB68002B16
S113042002D101235B4218E0FB68012B05D0FB6875
S1130430022B02D001235B420FE00A4B1B78002BF6
S113044002D101235B4208E0064B9C68054B5B68C4
S11304507A68B9681800A04700231800BD4605B0A3
S113046090BDC046A8F0FF1F80B500AFC046BD4692
S113047080BDC04680B500AF00F0AAFFC046BD46AF
S113048080BDC04680B500AF00F00EF8FFF7F2FF64
S1130490FFF7EAFF034B180002F084FF01F06EFC43
S11304A0FEE7C046CC37000080B500AFC046BD466D
S11304B080BDC04680B584B000AF78607B681B0CFB
S11304C0094A94466344FB60FB68FA6811687A68D9
S11304D01204120C0120904002000A431A60C04624
S11304E0BD4604B080BDC0460070044080B584B0F1
S11304F000AF78600023FB6006E00C4A7B689A42F8
S113050006D0FB680133FB60FB68002BF5D000E0EC
S1130510C046FB68002B03D0054B180001F086FD94
S1130520FB681800BD4604B080BDC04600B003405F
S1130530E437000080B584B000AF786039603B6870
S1130540002B03D13E4B180001F070FD7B681800AE
S1130550FFF7CCFF3B4B1800FFF7ACFF3B685B7821
S11305601A0003231A403B681B799B000C210B40A3
S11305701343FB603B685B79042B03D0FB681022B8
S11305801343FB603B68DB785B0160221340FA682D
S11305901343FB603B68DB79002B03D0FB688022AC
S11305A01343FB607B68FA689A607B68DB680F2200
S11305B09343FB603B685B79042B07D03B685B7912
S11305C01A0003231340FA681343FB603B689B79CA
S11305D0002B03D0FB6804221343FB603B689B7829
S11305E0002B03D0FB6808221343FB607B68FA6886
S11305F0DA607B681B6A03229343FB603B681B78C9
S11306001A0003231340FA681343FB607B68FA68FB
S11306101A623B681B7A002B06D07B685B6A08224F
S11306201A437B685A6206E07B685B6A082293433C
S11306301A007B685A62C046BD4604B080BDC046FD
S1130640243800001B003C1080B582B000AF7860F5
S11306507B68002B03D1114B180001F0E7FC7B6889
S113066000221A707B6803225A707B6801229A70F8
S11306707B680322DA707B6801221A717B6804228A
S11306805A717B6800229A717B680022DA717B6858
S113069000221A72C046BD4602B080BD5038000028
S11306A080B586B000AF78601723FB1800221A705B
S11306B000233B617B681B6A402213400AD0172346
S11306C0FB1801221A707B681B6A402293431A00AC
S11306D07B681A627B685B6AC0221A437B685A6231
S11306E00AE07B68180000F069F802004023134018
S11306F002D001233B6108E07B680021180000F070
S1130700B1F8020080231340EBD07B681B69FB60C7
S11307101723FB181B78002B05D07B681B6A40222B
S11307201A437B681A627B68180000F047F80200DD
S11307304023134001D001233B613B69002B01D0CE
S11307403B6936E07B68DA6C7B689B6CD2187B680B
S11307505B6CD2187B681B6CD2187B68DB6BD2187D
S11307607B689B6BD318FB60FB685B0880221202DA
S11307701343FB60FA687B68DA627B68DA6E7B6835
S11307809B6ED2187B685B6ED2187B681B6ED21886
S11307907B68DB6DD2187B689B6DD318FB60FB68AC
S11307A05B08802212021343FB60FA687B681A63B9
S11307B000231800BD4606B080BDC04680B584B095
S11307C000AF78600023FB607B681B6A80221340C3
S11307D003D0FB6880221343FB607B685B6A402282
S11307E0134003D0FB6840221343FB60FB681800EE
S11307F0BD4604B080BDC04680B586B000AFF86089
S1130800B9607A60BB68012B03D9144B180001F05E
S11308100DFC7B68002B03D1114B180001F006FC82
S11308207B681B681F2213407B617B685B79002B0C
S113083003D07B69202213437B617B681B79002BE7
S113084003D07B69402213437B61FB68BA68920042
S11308507969D150C046BD4606B080BD7C380000E1
S1130860B838000080B584B000AF786039603B6868
S1130870012B03D90A4B180001F0D8FB0023FB60BD
S11308807B683A689200D3588022134003D0FB68F7
S113089080221343FB60FB681800BD4604B080BD92
S11308A0E438000080B500AF064B1B68002B03D171
S11308B0054B180001F0BAFB024B1B681800BD463B
S11308C080BDC046B8F0FF1F2039000080B582B05B
S11308D000AFFFF7E7FF03007B607B68002B01D1CB
S11308E07B683EE0214B1B78DBB21A0038231340AF
S11308F0DA08FB1C1A70FB1C1B787A68DA401300B8
S11309007B601A4B5B78DBB21A00302313401A0960
S1130910BB1C1A70BB1C1B78002B21D0FB1C1B7842
S1130920062B0AD002DC002B17DB02E0072B0CD0CD
S113093013E07B685B097B6012E07B68142118007C
S113094002F08DFE03007B600AE07B680C21180036
S113095002F085FE03007B6002E000237B60C0465A
S11309607B681800BD4602B080BDC046004006400A
S113097080B500AF0B4B9B79DBB21A000123134007
S113098002D1094B1B680AE0084B1A68054B1B7A15
S1130990DBB219000E230B405B08DA401300180089
S11309A0BD4680BD0040064080F0FF1F84F0FF1F5D
S11309B080B500AF084B9B79DBB21A0010231340BB
S11309C01B0903D1FFF782FF030001E0034B1B68FF
S11309D01800BD4680BDC0460040064080F0FF1FA1
S11309E080B500AFFFF75EFF03001800BD4680BD71
S11309F080B500AF0A4B1B78DBB25BB2002B0ADA7E
S1130A00084B1B68002B03D1074B180001F00EFBA9
S1130A10044B1B6800E000231800BD4680BDC0469F
S1130A2000500640B8F0FF1F4C39000080B582B07A
S1130A3000AF184B1A68C0231B0313409B0C022BF6
S1130A4010D0032B1AD0002B1CD1FFF7D1FF0200CA
S1130A5080231B029A4202D180231B0200E0002360
S1130A607B6012E00C4B1B68002B03D10B4B18006E
S1130A7001F0DCFA084B1B687B6006E0FA239B005C
S1130A807B6002E000237B60C0467B681800BD46A3
S1130A9002B080BD00700440BCF0FF1F7839000034
S1130AA080B582B000AF104A104BD25880235B024D
S1130AB013401B0C02D0012B05D00CE000F0BAF857
S1130AC003007B600AE000F023F903007B607B688D
S1130AD05B087B6002E000237B60C0467B681800F3
S1130AE0BD4602B080BDC046007004400410000042
S1130AF080B584B000AF0200FB1D1A70FB1D1B788B
S1130B000D2B57D89A002F4BD3181B689F4600F023
S1130B105FF82D4A2D4BD3581B0F1B071B0F0133B6
S1130B20190002F09CFD0300FB6046E000F050F861
S1130B30254A264BD3581B0F1B071B0F01331900E3
S1130B4002F08DFD0300FB601F4A204BD258E023C6
S1130B50DB0213401B0C01331900F86802F07FFD1F
S1130B600300FB6029E0FFF79BFF0300FB6024E028
S1130B70FFF75CFF0300FB601FE000F0B1F8030027
S1130B80FB601AE000F098F80300FB6015E000F049
S1130B9051F80300FB6010E000F0BAF80300FB60BA
S1130BA00BE0FA239B00FB6007E0FFF721FF030043
S1130BB0FB6002E00023FB60C046FB681800BD46F2
S1130BC004B080BD403A00000070044044100000AE
S1130BD080B582B000AF164B9B79DBB21A000C23B0
S1130BE013409B083B603B68012B0ED008D3022BBB
S1130BF010D0032B13D100F08BF803007B6011E0BD
S1130C0000F018F803007B600CE0FFF7B1FE03006E
S1130C107B6007E0FFF746FE03007B6002E00023F1
S1130C207B60C0467B681800BD4602B080BDC046EC
S1130C300040064080B582B000AF1D4B5B78DBB24C
S1130C401A000223134006D1194B9B79DBB21A0018
S1130C502023134001D0002326E0FFF7A9FE030060
S1130C607B607B68002B01D17B681DE0104BDB7837
S1130C70DBB21A00602313405A09FB1C1A700C4B98
S1130C80DB78DBB21A0080231340DA09BB1C1A702C
S1130C90FB1C1978BB1C1A78064B49008A185200B1
S1130CA0D35A1A007B6853431800BD4602B080BD76
S1130CB000400640783A000080B500AF074B1B782F
S1130CC0DBB21A000223134001D1002302E0FFF734
S1130CD04FFE03001800BD4680BDC04600400640DC
S1130CE080B582B000AFFFF763FE03007B607B68D2
S1130CF0002B08D0FFF76CFF0300DA087B689A42E8
S1130D0001D37B6800E000231800BD4602B080BD1B
S1130D1080B582B000AF184B9B79DBB21A00402338
S1130D20134001D1002323E0FFF75AFE03007B6048
S1130D307B68002B03D1114B180001F077F90E4B9F
S1130D401B79DBB21A001F231340013319007868A2
S1130D5002F085FC03007B60074B5B79DBB21A0071
S1130D601F23134018331A007B6853437B607B684E
S1130D701800BD4602B080BD00400640A439000002
S1130D8080B584B000AF78607B681B0C094A944638
S1130D906344FB60FB68FA6811687A681204120CF9
S1130DA00120904002000A431A60C046BD4604B0C8
S1130DB080BDC0460070044080B584B000AF786048
S1130DC00023FB6006E00C4A7B689A4206D0FB686D
S1130DD00133FB60FB68002BF5D000E0C046FB68E4
S1130DE0002B03D0054B180001F020F9FB68180014
S1130DF0BD4604B080BDC04600F00340883A000000
S1130E0080B584B000AF786039603B68002B03D1B3
S1130E101B4B180001F00AF97B681800FFF7CCFFA0
S1130E20184B1800FFF7ACFF7B6821229B5CDAB2F9
S1130E300F23FB1848218A431A703B681B78012B47
S1130E4007D10F23FB180F22BA18127840210A4346
S1130E501A703B685B78002B07D00F23FB180F2216
S1130E60BA18127808210A431A707B680F22BA183C
S1130E70212112785A54C046BD4604B080BDC046F4
S1130E80C43A00001F003C1080B582B000AF786007
S1130E907B68002B03D1074B180001F0C7F87B686F
S1130EA001221A707B6800225A70C046BD4602B007
S1130EB080BDC046F03A000080B582B000AF7860D3
S1130EC008001100FB1C021C1A703B000A1C1A804B
S1130ED0FB1C1B78012B03D90F4B180001F0A6F85B
S1130EE0FB1C1A783B001B88D9B27B685200D15492
S1130EF0FB1C1B783A001288120A92B2D2B20F215C
S1130F000A40D1B27A685B00D31801330A1C1A7004
S1130F10C046BD4602B080BD743B000080B584B0BD
S1130F2000AF78600A00FB1C1A70FB1C1B78012BB5
S1130F3003D9124B180001F079F87B6823229B5CDB
S1130F40DAB20F23FB1810218A431A70FB1C1B789A
S1130F501B01DBB210221340D9B20F23FB180F225E
S1130F60BA1812780A431A707B680F22BA18232120
S1130F7012785A54C046BD4604B080BDA83B000058
S1130F8080B584B000AFF860B9607A60BB68032BA9
S1130F9003D90F4B180001F049F87B68002B12D0DD
S1130FA0F968BA6884235B0012018A18D3181B6895
S1130FB0802252041A43F868B96884235B0009014B
S1130FC04118CB181A60C046BD4604B080BDC04667
S1130FD0243C000080B582B000AF78607B68002BB1
S1130FE003D10E4B180001F021F87B6818687B6868
S1130FF01B79190080235B041A00FFF7C1FF7B688B
S11310009B68002B06D07B689A687B68D9687B68EC
S113101018009047C046BD4602B080BD6040000045
S113102080B500AF034B1B681800FFF7D3FFC04621
S1131030BD4680BDC0F0FF1F80B500AF034B5B68A9
S11310401800FFF7C7FFC046BD4680BDC0F0FF1FB4
S113105080B500AF034B9B681800FFF7BBFFC04689
S1131060BD4680BDC0F0FF1F80B500AF034BDB68F9
S11310701800FFF7AFFFC046BD4680BDC0F0FF1F9C
S113108080B584B000AFF860B960FB1D1A70FB1D19
S11310901B78002B05D10122BB689A40FB689A603B
S11310A004E00122BB689A40FB685A60C046BD4612
S11310B004B080BD80B584B000AFF860B9607A60D8
S11310C07B68002B03D1134B180000F0AFFF7B6843
S11310D01B78002B0AD1FB685B690121BA68914037
S11310E00A00D2431A40FB685A610FE07B685A78C1
S11310F0B968FB681800FFF7C3FFFB685A69012150
S1131100BB6899400B001A43FB685A61C046BD4650
S113111004B080BDCC40000080B582B000AF7860E0
S113112039607B68DB78DBB21A001023134006D1E8
S11311307B689B78DBB21A002023134006D0094B4E
S11311401B6839687A681000984705E0064B1B68ED
S113115039687A6810009847BFF34F8FC046BD4680
S113116002B080BDD8F0FF1FDCF0FF1F80B500AFD8
S1131170044B1B68044A19001000FFF7CDFFC0465A
S1131180BD4680BDD0F0FF1F0060064080B500AFB3
S1131190044B5B68044A19001000FFF7BDFFC0460A
S11311A0BD4680BDD0F0FF1F0070064080B500AF83
S11311B0044B1A68044B1B68044819009047C04646
S11311C0BD4680BDE4F0FF1FE0F0FF1F00A0064015
S11311D080B584B000AF78607B681B0C094A9446E4
S11311E06344FB60FB68FA6811687A681204120CA5
S11311F00120904002000A431A60C046BD4604B074
S113120080BDC0460070044080B584B000AF7860F3
S11312100023FB6006E00C4A7B689A4206D0FB6818
S11312200133FB60FB68002BF5D000E0C046FB688F
S1131230002B03D0054B180000F0F8FEFB681800E3
S1131240BD4604B080BDC04600700340F0400000BD
S113125080B582B000AF786039603B68002B03D161
S1131260144B180000F0E2FE7B681800FFF7CCFF77
S1131270114B1800FFF7ACFF7B681B6802229343F5
S11312801A007B681A603B681B78002B07D07B68C8
S11312901B68012293431A007B681A6005E07B688F
S11312A01B6801221A437B681A60C046BD4602B01F
S11312B080BDC0462C41000017003C1080B582B0B0
S11312C000AF786039607B681B78DBB21A001023AA
S11312D0134009D00B4B1B680B4A396889008958A5
S11312E07A681000984708E0084B1B68064A39687A
S11312F0890089587A6810009847C046BD4602B0F4
S113130080BDC046F0F0FF1FE8F0FF1FF4F0FF1FA0
S113131080B500AF074B1B68002B03D1064B1800A8
S113132000F084FE054B00211800FFF7C7FFC046FC
S1131330BD4680BDE8F0FF1F0C430000006007407D
S113134080B500AF074B5B68002B03D1064B180038
S113135000F06CFE054B01211800FFF7AFFFC046FB
S1131360BD4680BDE8F0FF1F384300000070074011
S113137080B500AF044B1A68044B5B68044819003D
S11313809047C046BD4680BD04F1FF1FF8F0FF1F23
S113139000B0064080B500AF044B1A68044B9B684C
S11313A0044819009047C046BD4680BD04F1FF1FA4
S11313B0F8F0FF1F00C0064080B500AF034A882341
S11313C05B010021D150C046BD4680BD0070044081
S11313D080B582B000AF864B1B78DBB21A00C02305
S11313E0134000D0BEE0824B5B79DBB21A0040238D
S11313F0134000D094E07E4B1B78DBB21A00042328
S113140013403DD17B4B7B60794B5B78DBB21A0098
S11314103023134020D0764B1B78DBB21A003823DC
S11314201340302B06D0382B09D1BB1CC022D2006C
S11314301A801CE0BB1CA022D2001A8017E06C4B5F
S11314401B78DBB21A0038231340DB0820229A40B1
S1131450BB1C1A80C0460AE0654B1B78DBB21A003D
S113146038231340DB0801229A40BB1C1A80BB1CA2
S11314701B881900786802F0F2F803007B6002E030
S113148080231B027B605A4BDB78DBB21A00E0231B
S11314901340602B27D006D8202B16D0402B1BD00E
S11314A0002B0BD08FE0A02B2AD002D8802B21D088
S11314B089E0C02B2AD0E02B2DD084E07A68130079
S11314C09B009B18DB017B607DE07A6813009B0026
S11314D09B181B027B6076E07A6813001B019B1A41
S11314E0DB017B606FE07A6813009B009B185B0252
S11314F07B6068E07B68B722920053437B6062E0C4
S11315007B68B722D20053437B605CE07B683A4A35
S113151053437B6057E07B68384A53437B6052E017
S1131520334B1B79DBB29BB21F2213409AB2BB1C14
S113153001321A80BB1C1B8819002E4802F08FF858
S113154003007B602A4B5B79DBB29BB21F22134002
S11315509AB2BB1C18321A80BB1C1A887B6853438E
S11315607B6030E0224B1B78DBB21A00C0231340AF
S1131570402B1ED11E4B5B78DBB21A0001231340B3
S113158003D180231B027B601DE0194B1B7ADBB265
S11315901A000E2313405B0801229A40BB1C1A80D8
S11315A0BB1C1B881900164802F059F803007B6025
S11315B009E00F4B1B78DBB21A00C0231340802BC9
S11315C011D10C4B7B600F4A0F4BD3581B0F1B07D9
S11315D01B0F01331900786802F041F803001A0068
S11315E00A4B1A6000E0C046BD4602B080BDC0464A
S11315F00040064000127A0095080000710B0000BC
S113160000093D00007004404410000088F0FF1FF2
S113161080B500AF054B01221A70044B00225A809A
S1131620024B034A5A60C046BD4680BD08F1FF1F05
S11316308D18000080B500AF074B1B78012B02D03A
S1131640022B03D005E000F029F802E000F036F8A0
S1131650C046C046BD4680BD08F1FF1F90B583B0AB
S113166000AF042000F0F4F9C04600F011FA0300C2
S1131670012BFAD1BC1D00F029FA03002380064B8C
S11316801B88BA1D12889A4201D3012300E000236B
S11316901800BD4603B090BD8CF0FF1F80B500AFAD
S11316A0FFF7DCFF0300012B02D1034B02221A7067
S11316B0C046BD4680BDC04608F1FF1F80B582B05C
S11316C000AFBB1D00221A80FFF7C8FF0300012BE7
S11316D006D1114B5B8801339AB20F4B5A8016E046
S11316E00D4B5A880D4B1B7999B2BB1D4A431A8086
S11316F00A4B5B88BA1D12889A4202D3064B5B6878
S11317009847054B01221A70034B00225A80C046A9
S1131710BD4602B080BDC04608F1FF1F8CF0FF1F1C
S1131720B0B500AF002000F093F9C04600F0B0F966
S11317300300012BFAD1184B1B881A0080235B018C
S11317409C1A00F0C3F903009C4204DC134B802272
S113175052011A8005E000F0B9F903001A000F4B9A
S11317601A8000F0B3F903001A000B4B1B889A424D
S113177003D80A4B00221A8005E000F0A7F9030001
S11317801A00064B1A80054B1B88180000F014FA47
S1131790C046BD46B0BDC04692F0FF1F10F1FF1F0A
S11317A080B500AF002000F053F9C04600F070F996
S11317B00300012BFAD100F089F903001A001D4B34
S11317C01A801D4B1A681D4B1B885B00D318194ADD
S11317D012881A80174B1B881900174B1A68184B6C
S11317E01B885B00D3181B88CB185B109BB21800B6
S11317F000F0E2F9114B1B88002B03D10F4B114A67
S11318001A8005E00D4B1B88013B9AB20B4B1A80E2
S11318100B4B1B88002B03D1094B0A4A1A8005E0A5
S1131820074B1B88013B9AB2054B1A80C046BD4644
S113183080BDC0461411002098F0FF1F12F1FF1F55
S113184094F0FF1FFA0F000080B500AF0D4B1B781A
S1131850A52B11D10C4B1B78012B07D0022B08D0E0
S1131860002B00D00AE0FFF79BFF07E0FFF758FFCB
S113187004E000F031F801E000F01AF8C046BD467B
S113188080BDC0469CF0FF1F1611002080B500AF3C
S1131890064B1B785A2B03D1044BA5221A7002E085
S11318A0024B5A221A70C046BD4680BD9CF0FF1FF1
S11318B080B500AF002000F0CBF8C04600F0E8F897
S11318C00300012BFAD100F001F90300180000F025
S11318D073F9C046BD4680BD80B500AF002000F05E
S11318E0B7F8C04600F0D4F80300012BFAD100F099
S11318F0EDF803001A001B4B1A801A4B1B881A00C0
S1131900194B1B6853431B0D9AB2184B1A80164B84
S11319101B68174A934202D9164B01221A80154BB1
S11319201B88002B0ED0104B1B68134A12889A1A7E
S11319300D4B1A600C4B1B68012B0BD80D4B00226E
S11319401A8007E00C4B1B881A00074B1B68D2183F
S1131950054B1A60054B1B88180000F02DF9C04692
S1131960BD4680BD1A110020A0F0FF1F18110020F1
S11319703F420F001C110020A4F0FF1F80B582B06D
S113198000AF78600A00FB1C1A70FB1C1B78002B4C
S113199006D07B681B6A40221A437B681A6206E001
S11319A07B681B6A402293431A007B681A62C04614
S11319B0BD4602B080BDC04680B582B000AF78603D
S11319C039603B68012B03D9064B180000F02EFB4D
S11319D07B683A6804329200D3581800BD4602B0BE
S11319E080BDC0466443000080B584B000AF3B1D99
S11319F01800FEF729FE3B1D00225A703B1D0022F1
S1131A009A703B1D0122DA703B1D01221A713B1DA5
S1131A1004225A713B1D01229A713B1D0022DA7186
S1131A203B1D00221A723B1D084A19001000FEF7E4
S1131A3081FD064B00211800FFF7A0FF034B18009F
S1131A40FEF72EFEC046BD4604B080BD00B0034084
S1131A5080B584B000AF0200FB1D1A70FB1D1A781C
S1131A600823FB181A600823FB1800221A710823A4
S1131A70FB1800225A710823FB1804481A0000219D
S1131A80FEF7BAFEC046BD4604B080BD00B00340B8
S1131A9080B582B000AFFB1D00221A700A4B0021F2
S1131AA01800FEF7DFFE02008023134003D0FB1D65
S1131AB001221A7002E0FB1D00221A70FB1D1B7824
S1131AC01800BD4602B080BD00B0034080B500AF31
S1131AD0044B00211800FFF76FFF03009BB21800AE
S1131AE0BD4680BD00B0034080B582B000AFFB1D91
S1131AF000221A700FE0FB1D1A780B4B52000021D4
S1131B00D152FB1D1B78094A0021D154FB1D1A78C0
S1131B10FB1D01321A70FB1D1B78012BEBD9C0464B
S1131B20BD4602B080BDC046201100202411002013
S1131B3080B582B000AF78600A00FB1C1A70FB1CF1
S1131B401B78002B0BD07B6821229B5CDBB28022AC
S1131B5052421343D9B27B682122995409E07B682D
S1131B6021229B5CDBB27F221340D9B27B68212205
S1131B709954C046BD4602B080BDC04680B582B00F
S1131B8000AF3B1D1800FFF77FF93B1D094A190000
S1131B901000FFF735F9074B01211800FFF7C8FFC4
S1131BA0044B00211800FFF7B9F9C046BD4602B046
S1131BB080BDC04600F0034080B582B000AF020093
S1131BC0BB1D1A80BB1D1B8804481A000021FFF7A7
S1131BD073F9C046BD4602B080BDC04600F0034064
S1131BE080B584B000AF78607B681B0C094A9446CA
S1131BF06344FB60FB68FA6811687A681204120C8B
S1131C000120904002000A431A60C046BD4604B059
S1131C1080BDC0460070044080B586B000AFF86057
S1131C20B9607A607B68002B03D1084B180000F080
S1131C30FDF9BB689B00FA68D3187B617B697A68FD
S1131C4012881A80C046BD4606B080BD0844000014
S1131C5080B584B000AF404B1800FFF7C1FF3F4B85
S1131C601800FFF7BDFF3E4B1800FFF7B9FF3B1DFF
S1131C705A7807218A43111C01220A435A703B1DDA
S1131C801A7803210A431A703B1DFB60FB68354830
S1131C901A000921FFF7C0FFFB6832481A00082127
S1131CA0FFF7BAFFFB6830481A001221FFF7B4FFB0
S1131CB0FB682D481A001321FFF7AEFFFB682B4881
S1131CC01A000121FFF7A8FFFB6827481A00092121
S1131CD0FFF7A2FFFB6824481A000821FFF79CFFC6
S1131CE03B0000221A703B0001225A703B00BB608B
S1131CF0BB681F481A000921FFF7DCF9BB681C48C0
S1131D001A000821FFF7D6F9BB681A481A000921FE
S1131D10FFF7D0F9BB6817481A000821FFF7CAF982
S1131D203B0001221A703B0001225A70BB68114823
S1131D301A001221FFF7BEF9BB680E481A001321DE
S1131D40FFF7B8F9BB680C481A000121FFF7B2F994
S1131D50C046BD4604B080BD0B0038100A003810E0
S1131D600C00381000B0044000A0044000C004403F
S1131D7080F00F4040F00F40C0F00F4080B500AF3E
S1131D80FFF766FFFFF7FAFEFFF72EFEFFF7ACFE44
S1131D90FFF73EFC00F0CCF8C046BD4680BDC0460F
S1131DA080B582B000AF0200FB1D1A70064BFA1D0D
S1131DB0127811001F220A40012191400A001A6082
S1131DC0C046BD4602B080BD00E100E080B582B0EF
S1131DD000AF0200FB1D1A70FB1D1B785BB2803341
S1131DE006D0FB1D1B785BB21800FFF7D9FF00E09B
S1131DF0C046BD4602B080BD80B582B000AF7860F9
S1131E007B68002B03D1054B180000F00FF97B68A9
S1131E1000221A70C046BD4602B080BD984400003E
S1131E2080B584B000AFF8607A600B23FB180A1CFD
S1131E301A700B23FB1819780B23FB181A78F8680F
S1131E4084235B0012018218D3181A687B681A4332
S1131E50F86884235B0009014118CB181A60C04656
S1131E60BD4604B080BDC04680B582B000AF786086
S1131E700A00FB1C1A70FB1C1A78796886235B0025
S1131E8012018A18D3181B68012213401800BD469A
S1131E9002B080BD80B584B000AFF8607A600B23D7
S1131EA0FB180A1C1A700B23FB181A78F96886238E
S1131EB05B0012018A18D3187A681A60C046BD46BE
S1131EC004B080BD80B584B000AFF8607A600B23A5
S1131ED0FB180A1C1A700B23FB181A78FB681032C3
S1131EE012017968D150C046BD4604B080BDC046D9
S1131EF080B582B000AF78600A00FB1C1A70FB1C2E
S1131F001978FB1C1A78786884235B001201821804
S1131F10D3181B6801221A43786884235B000901E3
S1131F204118CB181A60C046BD4602B080BDC046F9
S1131F30B0B582B000AF3B1D1800FFF75DFF3B1D3D
S1131F40224A19001000FFF783F90220FEF7D0FDA2
S1131F5003001C0000231D00FA229200002320002D
S1131F60290001F0E3FB03000C0018002100184ACB
S1131F70002301F0ADFB03000C001A00134B0021F9
S1131F801800FFF79FFF114BF02201211800FFF703
S1131F9099FF0E4B022200211800FFF741FF0B4B63
S1131FA0022201211800FFF73BFF1620FFF70EFF66
S1131FB0064B00211800FFF79BFF044B012118007A
S1131FC0FFF796FFC046BD4602B0B0BD00700340A7
S1131FD040420F0080B500AF104B00211800FFF7FE
S1131FE043FF031E08D00D4B012200211800FFF708
S1131FF051FFFFF71FFB0EE0084B01211800FFF70C
S113200033FF031E07D0054B012201211800FFF7FF
S113201041FFFFF719FCC046BD4680BD0070034078
S113202010B500F0A1FAFEF72DFA10BD70B5050049
S11320300E4C0F48210000F0E3F92100280000F0C5
S1132040DFF90C4A111DCB6F013BCB67002B05DB7D
S1132050936F591C91670A221A7003E021000A2029
S113206000F034F800F008F870BDC046A01100205C
S1132070244500002811002018200149ABBE7047F8
S11320802600020010B501F068FB10BD202310B536
S11320900400C2689A43E2608369826A93420CD066
S11320A000F0BAF8E268074B134010221343E360D0
S11320B0A36AA3612369E3622360E268024B1340CD
S11320C0E36010BDEFCFFFFFBFBFFFFFF8B5CA68E5
S11320D04E4B050013400C00CB60930602D508005C
S11320E0FFF7D4FFA168E3684A1C0EDA9A050CD402
S11320F002225242521AA260902252021343E36017
S113210023685A1C22601D707DE0414A1E001A405B
S1132110022A05D00022A26080321343E36053E018
S11321203C490B40802109028B420AD10021200046
S113213000F07EF9E3689B0602D52000FFF7A6FFB6
S1132140E6689023F0225B0233431201E3601642F7
S11321501FD1606901F022FB00280CD073050AD559
S113216023002433236123600123E36192235B0270
S11321703343E3600DE080277F00380000F030F93E
S11321809423E2685B0233431A4320612060E761D1
S1132190E2609022120121682669134217D0E36A93
S11321A08B4200D91900891B08D1731CE362236098
S11321B0E3695A1EA2602363357024E022003000D4
S11321C000F05AF80028F0D0012040421CE04A1CDC
S11321D0E8B222600870E26A21688A4200D91100DC
S11321E0E269891B22635B0503D40A2801D091426A
S11321F009DB0023E6622660A3602200300000F0C1
S11322003BF80028E0D1E8B2F8BDC046FFFFF7FF75
S11322108A10000010A0000070B504000569016870
S1132220C26A134BC0680340E36082230340022B5D
S113223002D00120404219E080235B02184015D0EF
S1132240914200D211008D4208D10020E268094B6E
S1132250E56213402560A060E36007E0491B2200AB
S1132260280000F009F80028EFD0E2E770BDC0466E
S1132270FFFFF7FFFFFFFEFFF7B5D66801900D00E3
S113228014005769F30205D5102338001E4301F0EA
S11322907FFAA061114B1E4209D0A169380001F0F8
S11322A089FA8023002811DB0D4B1E40E6602A00CA
S11322B001993800FEF7ACF843005B08ED1AA369F6
S11322C05D190023A561984205D08033E268134369
S11322D0E36001235B421800FEBDC046100002000B
S11322E0EFFFFDFFF7B5314EC51C3468AD0801960C
S11322F0002813D080222900EB1C002752050A3144
S11323009C4604E02368934213D02700A468002C61
S1132310F8D10C3001F0BEF8431C0FD1002043E08B
S11323203E68964217D17E689B1903336360BB688D
S1132330A360A7686368002FF2D10CE080239B059B
S1132340036045608460002F02D1019B186000E0A7
S1132350B8600C3028E09D4205DC634503DC802333
S11323609B0523601EE08B4210D98022200080212F
S11323709205656022600C30AA005D1B8218490535
S1132380033DA2601160556097600DE0002FBCD141
S11323909B00C01A01F07EF8431CBFD080239B052C
S11323A0236065602000D4E7FEBDC046DC11002038
S11323B010B5002812D080235B0519000C38036087
S11323C08268002A0AD013688B4207D15468436894
S11323D01B190333436093688360F1E710BDFFFF6B
S11323E010B5FFF77FFF041E05D117220349FEF73E
S11323F00FF8FFF741FE200010BDC0464045000025
S113240070B50D0004002078002810D0AB68013BA3
S1132410AB60002B04DB2B685A1C2A60187004E0A4
S11324202900FFF753FE431C01D00134EBE770BDD4
S1132430F7B5394BC66804000D0000921E4267D000
S113244043691800019301F0A9F9071E60D1009BAC
S1132450012B04D0022B07D0002B59D122E02000FD
S113246000F05EF82D181DE0019801F091F9E26882
S1132470002804DA80231343E360012749E0E16A7A
S11324802368994200D90B00A1695B1821695B1A82
S1132490920603D5A26A934200DA1300834200DA5B
S11324A00300ED18002D33DBB30404D52368E26A7E
S11324B09A4200D2E362A06985420EDBE26A236895
S11324C0934200D21300226919180092891A8D428E
S11324D003DC216B4218954206DB20231E430023B4
S11324E0A562A36063600FE02D1AB20701D5691AD3
S11324F0A160F20703D5009A9B1AEB1A6360009B54
S11325005D19202325609E43044B1E40E66000E0D5
S113251002273800FEBDC04603001000BFCFF7FFFE
S1132520C3689A0705D1212201200E4B40421A604C
S113253016E0202219030AD5134201D0806A04E070
S11325400368826900699B18181A013808E013426D
S113255001D0806A04E00368826900699B18181A34
S11325607047C046E411002037B5184C18492200C2
S1132570002000F0AFFF802380225B00D200002106
S1132580200000F037FF134C134D220029000120D6
S113259000F0A0FF802380225B00D20000212000F5
S11325A000F028FF0D4B1B680193022B0DDD0C4C32
S11325B029002200022000F08DFF802380225B008E
S11325C0D2000021200000F015FF37BD28110020A3
S11325D058450000641100205A4500003C450000A5
S11325E0A011002000207047F0B5CFB00A920B93E1
S11325F000220400549B559F069218785A1C079297
S1132600002801D100F09BFE252807D18021042356
S11326100025079A243889009C4624E0069B0B9ADF
S11326205D1CDB179A4208DC01D000F075FE0A9BA2
S1132630069A934201D800F06FFEA368013BA360A1
S1132640002B05DB23685A1C2260187000F064FE1E
S11326502100FFF73BFD00F05FFE2B2E08D92D2E45
S11326600CD105431A001678531C2B2EF5D109E022
S1132670202E09D0232E0AD1082206E0302E06D1BE
S11326800D43EFE7022200E062461543EAE72A2EF3
S11326900BD139683B1D002902DA0120494245402B
S11326A0901C079056781F0008E000213200303A51
S11326B0D0B20793092801D800F032FEC8430023A2
S11326C0C017014022910E932E2E1ED1079B1E7817
S11326D02A2E07D13B6804370E93079B5E7802339A
S11326E007930AE00A20079B01333200303AD1B243
S11326F00793092901D800F01AFE0E9B002B02DB78
S113270010231D4301E000230E936C2E0FD1079B71
S11327101E786C2E06D15E7860231D43079B02331E
S1132720079304E0079B0133079320231D434C2E9A
S113273001D0712E05D1079B1E7860231D43079B92
S11327401DE0682E10D1079B1E78682E06D18023C9
S11327505B001D43079B5E78023311E0079B013346
S1132760079380231D430CE06A2E02D140231D43AE
S113277003E07A2E01D0742E03D1079B1E78013317
S11327800793672E1EDC652E00DB9BE2472E00D1EB
S113279098E209DC412E00D18EE2452E00D191E26F
S11327A0002E00D1B5E027E0612E00D184E203DCE5
S11327B0582E00D187E11FE0632E19D0642E00D17A
S11327C029E219E0702E00D1CBE108DC6E2E00D195
S11327D0A5E000DDCFE1692E00D11CE20CE0752EEE
S11327E000D1EEE1782E00D194E1732E04D1B5E04E
S11327F03B1D10933E6800E01097229B013B089319
S113280001232B40119337D13027AB0500D4103F5F
S1132810002200230E920F930E9A069B0E999B188A
S1132820229A023A521A089225D40E980F99069BBE
S11328302693DB172793269A279B12184B410B9953
S1132840994203DC10D10A9991420DD9A368013B46
S1132850A360002B04DB23685A1C22601F7003E072
S113286021003800FFF732FC0E9A0F9B0120002153
S113287012184B41CEE70693069B0B9A5D1CDB179F
S11328809A4204DC11D10A9B069A93420DD9A3689B
S1132890013BA360002B04DB23685A1C22601E70DA
S11328A003E021003000FFF711FC119B0695002B7B
S11328B001D100F02FFD00260027F343089AD342EC
S11328C021D4EB1728952993289A299B92197B41A7
S11328D00B99994203DC11D10A9991420ED9A3684C
S11328E0013BA360002B05DB23685A1C22602022D5
S11328F01A7003E021002020FFF7E8FB01220023E7
S1132900B6185F41D9E7D343DB1713405B1900F0D6
S113291000FD079B1097013B079300F0FBFC3B1D58
S113292010933B686A0605D5069A1A60D2175A6056
S113293000F0F0FCAA060DD4EA0504D56A46127E1E
S11329401A7000F0E7FC2A0604D56A46128B1A8036
S113295000F0E0FC069A1A6000F0DCFC3B1D1093CA
S11329603B681493002B01D1B74B1493149800F0D7
S113297067FD1190EB0603D50E9A904200DD11928B
S1132980229B119A9B1A089301232B400E9334D156
S11329903027AB0500D4103F00250026089B013BDF
S11329A05A1B21D4069B0B992A93DB172B932A9A43
S11329B02B9B52197341994203DC10D10A9991421D
S11329C00DD9A368013BA360002B04DB23685A1CC8
S11329D022601F7003E021003800FFF777FB01221B
S11329E00023AD185E41D9E7089AD043C0171040C0
S11329F0069A1B1A12180692089300260027119BA8
S1132A00B34224DD069B0B992C93DB172D932C9A50
S1132A102D9B92197B41994203DC13D10A9991426F
S1132A2010D9A368149A013BA3609219002B05DB0B
S1132A302368591C216012781A7003E01078210071
S1132A40FFF744FB01220023B6185F41D7E7DB43BD
S1132A50119EDB171E40069B9B1906930E9B002BB1
S1132A6001D100F057FC00260027F343089AD34213
S1132A7022D4069B0B992E93DB172F932E9A2F9B10
S1132A8092197B41994203DC11D10A9991420ED9E2
S1132A90A368013BA360002B05DB23685A1C22605A
S1132AA020221A7003E021002020FFF70FFB0122EF
S1132AB00023B6185F41D8E7D043069BC0171040E7
S1132AC01B1800F026FC40232B400AD007230737AD
S1132AD09F433B00083310933A687B680492059344
S1132AE004E03A1D10923A680593049280232B4027
S1132AF004D06B461B8A0493002304E0EA0503D543
S1132B006A46127C04920593504F2B0700D4504F11
S1132B10504BCBE040232B400AD0072307379F4379
S1132B203B00083310933A687B680492059304E0F1
S1132B303A1D10923A680593049280232B4004D0E6
S1132B406B461B8A0493002304E0EA0503D56A4616
S1132B50127C04920593404F2B0700D43C4F3F4B0B
S1132B60A4E03B1D10933B683B4F04930023059363
S1132B703A4B9C46D3E040232B400AD00723073727
S1132B809F433B00083310933A687B680492059393
S1132B9004E03A1D10923A680593049280232B4076
S1132BA004D06B461B8A0493002304E0EA0503D592
S1132BB06A46127C04920593294F2B0700D574E0D2
S1132BC072E040232B400AD0072307379F433B0082
S1132BD0083310933A687B680492059304E03A1D25
S1132BE010923A680593049280232B4004D06B46DC
S1132BF01B8A0493002304E0EA0503D56A46127C89
S1132C00049205931023124A2B4000D185E0154B02
S1132C101D40002381E06B060AD5072307379F4335
S1132C203B00083310933A687B680C920D9305E0DF
S1132C303B1D10933B680C93DB170D932B0613D5A8
S1132C406B4630229B5E16E05C4500006345000045
S1132C50574500006F4500006645000080450000B0
S1132C6069450000FFFDFFFFEB0507D56B463022E9
S1132C709B181B785BB20C93DB170D930D9B002BF9
S1132C8008DA0C980D99002342428B41C44F0492F8
S1132C9005930AE00C9A0D9BC24F04920593AB076F
S1132CA003D4C14F6B0700D4C04F00239C46EB06EE
S1132CB035D5BF490D4032E010231D4202D11D43DA
S1132CC0033B0E938022D2002A43EB0601D4062351
S1132CD00E932023072107372B408F43002B0DD061
S1132CE0386879683B0008331093150000230022EC
S1132CF0449045910492059300230BE03900083178
S1132D00109115003868796800224490459100219B
S1132D10049105929C461F0001E09C4617000A9806
S1132D200B99069B41973093DB173193309A319B73
S1132D30801A994101225242089009914292439289
S1132D40552000220E9B409346A950540132202A5C
S1132D50FAD18222D200154201D101224092672E7B
S1132D6016DC652E00DBC6E0472E00D1C3E006DC8E
S1132D70412E00D1BFE0452E00D0CCE0BBE0612E57
S1132D8000D1B8E0642E12D0582E00D0C3E011E078
S1132D90702E0FD006DC692E09D0002207216F2E79
S1132DA021D0B8E0752E02D0782E03D0B3E00023F2
S1132DB011932EE000220F210498059B0E921843D4
S1132DC000D1AAE06346049808401E5C059B46A80F
S1132DD01F07049B16541E09059B374318090497C3
S1132DE005900132E8E7049B05980E92034300D155
S1132DF093E0049B46A80B4030331354059B0132E7
S1132E005E07049BD808059B0643DB0804960593DC
S1132E10E9E7119B059A0E93049B134300D17CE0D0
S1132E20049E059F059B049ADB0752081A43059BE1
S1132E301E925B081F93049A059B92089B071A43F2
S1132E40059B20929B082193209821991E9A1F9BF1
S1132E5012184B41190710090843190916901791C4
S1132E601698179912184B411906100A0843190AA3
S1132E70189019911898199912184B411904100CAB
S1132E800843190C1A901B911A981B9912184B415C
S1132E900021249325912498259912184B41590710
S1132EA0DB081393D0080023062208431290B618B7
S1132EB05F41129813990A22002300F037FC361A56
S1132EC08F41129813993B0732091A433B091C920C
S1132ED01D931C9A1D9B801859410A224243049B4E
S1132EE0119E30339B1A46AAB35433000133119315
S1132EF0049005918DE743AB039342AB029340AB3F
S1132F00019341AB009330002B0046AA44A9569E7E
S1132F10B0470E9001E000230E938023DB002B408A
S1132F2023930DD000234093429B002B01DD013BF2
S1132F304093439B002B09DD409A013BD31804E0E6
S1132F40409B0E9A9B1A00D5239B40930E9B409A5C
S1132F5041989E1800F074FA229B00279E1B331A96
S1132F60119301232B402293124B1D4214D10026AE
S1132F70002707E0099BBB4221DC1DD0012200236E
S1132F80B6185F41119B013B9A1BF3D5119AD743A5
S1132F90FF171740DB1B11930022002332E0C046C9
S1132FA06B4500006D4500003745000057450000A3
S1132FB0FFFDFFFF01020000089BB342DED9A368B6
S1132FC0013BA360002B05DB23685A1C22602022EE
S1132FD01A70D3E721002020FFF778F8CEE7FB171B
S1132FE03297339314981599329A339B12184B41A4
S1132FF00999994215DC11D0149A159B01200021DE
S113300012184B4114921593149BFE18419B5A1CA1
S113301041921B789C46002BE1D112E00899914221
S1133020EAD9A368013BA360002B05DB23685A1C83
S1133030226062461A70DFE721006046FFF746F817
S1133040DAE7229B002B38D13027AB0500D4103FA0
S11330500022002314921593119B149A013B9A1A8F
S113306024D414981599F31734963593349A359BD0
S113307012184B410999994203DC10D108999142E5
S11330800DD9A368013BA360002B04DB23685A1C01
S113309022601F7003E021003800FFF717F8149A2C
S11330A0159B0120002112184B41D3E7119AD043FC
S11330B0C01710401B1A36181193239B002B02D102
S11330C0002200239AE000270E9BBB4200DCE8E0CC
S11330D046ABF85C3C2804D03E2863D10022002390
S11330E043E00022002314921593149BF518429B8D
S11330F0013B4293002B6BDB14981599F31736961A
S11331003793369A379B12184B410999994203DC3D
S113311011D1089991420ED9A368013BA360002BF9
S113312005DB23685A1C226030221A7003E0210058
S11331303020FEF7CBFF149A159B012000211218B2
S11331404B41D0E7F3173896399314981599389A68
S1133150399B12184B410999994213DC0FD0149AE8
S1133160159B0120002112184B4114921593149BB6
S1133170F518439B013B4393002BE3DA28E00899BD
S11331809142ECD9A368013BA360002B05DB2368C3
S11331905A1C226030221A70E1E721003020FEF729
S11331A095FFDCE7099A751CF3179A4203DC0FD1EB
S11331B0089BB3420CD9A368013BA360002B04DB3A
S11331C023685A1C2260187002E02100FEF77EFF7B
S11331D001372E0078E7F3173A963B931498159924
S11331E03A9A3B9B12184B410999994213DC0FD030
S11331F0149A159B0120002112184B411492159327
S1133200149BF518409B013B4093002BE3DA12E03A
S113321008999142ECD9A368013BA360002B05DB1C
S113322023685A1C226030221A70E1E72100302002
S1133230FEF74CFFDCE7002600270E9A3300921BB2
S1133240002A29DDEA173D923C953C983D99801966
S11332507941099A8A4203DC19D1089A824216D923
S1133260A2680E99013AA260CB1A002A08DB2268F0
S1133270511C21604EA9CB18213B1B78137006E02A
S11332804EAAD318213B18782100FEF71FFF012214
S11332900023B6185F41D0E70E9BDE43F6171E40AD
S11332A07619229B002B32D0002200230E920F931A
S11332B00E9B119ADB43D34225D40E980F99F31732
S11332C03E963F933E9A3F9B12184B41099999426F
S11332D003DC11D1089991420ED9A368013BA36084
S11332E0002B05DB23685A1C226020221A7003E09D
S11332F021002020FEF7EAFE0E9A0F9B01200021F8
S113330012184B41D2E7D043C01710403618069B21
S11333109B190693109F069D0695079BFFF76DF971
S11333200A2041431E7851180133FFF7BFF90E9963
S11333301E78414352180E920133FFF7D6F90698CE
S11333404FB0F0BDF0B50C0097B0150007003C225B
S1133350002107A81E00FEF795FE0A23621E002422
S11333600A930E4B009509930D4B0196029307A8FF
S113337023000797FFF738F9099B05000593013BE4
S11333800993A34202DB079B1C7003E007A92000FA
S1133390FEF79CFE280017B0F0BDC046FFFFFF7F7C
S11333A0E52500000FB473B506AB20CB01212A003C
S11333B068460193FFF7C6FF041E14DD461C300067
S11333C0FEF790FF009000280DD0019B2A003100E9
S11333D0FFF7B8FF064B22000099186DFDF718F8A7
S11333E00098FEF7E5FF200076BC08BC04B018473F
S11333F028110020F0B5C6680124B5071BD080252C
S1133400AD00AA420CD08025ED00AA4204D080254C
S11334106D00AA420FD103E001002300243104E02F
S1133420064F5D1E0124BD4205D8002432430161CC
S11334300160C361C2602000F0BDC046FEFFFF0012
S1133440032210B5431C104206D00130411E0978F6
S11334500029F8D1C01A18E00C4C02680C49511824
S11334609143214201D10430F7E7D4B2411C002C2E
S11334700AD0FF242402811C224205D0FF24240404
S1133480C11C224200D0011DC81A10BD808080805A
S1133490FFFEFEFE70B50C4D2B68002B01D10B4BCB
S11334A02B600323C41C2E689C433419200000F0B5
S11334B0A5F8002802D12C60300004E00C22012081
S11334C0034B40421A6070BDE0110020E811002057
S11334D0E4110020F7B50D0001901000140000F075
S11334E033F82B78722B09D0772B04D0612B25D19C
S11334F00823144A04E00423022201E000230122E9
S11335000220691C032784460426012508782B28F9
S113351005D0622807D132432B430131F6E76046D8
S11335203A430343F9E7E260019A62611B0706D557
S1133530022200212000FEF77BFF00E0002420008F
S1133540FEBDC04602800000F0B5C46889B0050025
S1133550A30721D0230718D44769066900F022F88D
S1133560380000F00FF9230502D53000FEF720FFE4
S11335700B4BA40DA4059C4207D12022296A68465E
S113358000F01EF9684600F02FF83C2200212800C4
S1133590FEF778FD002001E00120404209B0F0BDB3
S11335A0000080AD73B5002806D10D4B04001B68E4
S11335B0050001933C260EE000F02AF805000DE01A
S11335C030006043074BC01800F022F8002801D0F7
S11335D001256D420134019B9C42F1DB280076BD3C
S11335E03C4500002811002010B50400FFF728FF17
S11335F00100200000F0D8F810BDFFFF034B0200CB
S1133600181E02D000209A4240417047E81500205D
S1133610C36870B504000320184019D09B0604D574
S11336202000A66AFEF732FD04E02368A2699E1812
S11336302369F61AE268074B20001340E360FEF7A3
S1133640EBFD0500002231002000FEF7F1FE28000A
S113365070BDC046FFCFFFFF03000B4321D40029F8
S113366031D00122D207030901E00901120999426C
S1133670FBD9430801E0490052089942FBD900E014
S11336804908401A07D35241FAD3014610467047FD
S113369049084018F7D29218FAD340180146104648
S11336A07047CB0F00D04942021000D5404253402E
S11336B008B5FFF7D4FF0CBC521000D34042002AD7
S11336C000D549421847F446002000F02EF8604720
S11336D0F0B517001F4323D001264408CF073C430D
S11336E04D08A71A2F469F4103D392185B41013618
S11336F0F7E70024002505E05208DF073A435B089A
S113370024196D41871A0F469F4102D3801A9941AB
S11337100134013EF0D102460B4620462946F0BD55
S11337200020002100F001F8F0BD704710B54343BC
S11337305143C918040C130C5C43091992B2040CCC
S1133740544380B2434350432204240C8018614103
S11337501A041B0C8018594110BD8446043A09D33D
S1133760830707D109060B0A19430B0C1943043AC2
S113377002C0FCD2043203D001700130013AFBD103
S11337806046704703B469460220ABBE02B070477E
S113379003B469460C20ABBE02B0704703B469465B
S11337A00920ABBE02B0704703B469460E20ABBE1D
S11337B002B0704703B469460A20ABBE02B070473A
S11337C00FB469460D20ABBE04B070474245544166
S11337D020434F444520495320454E41424C4544E3
S11337E00A00FFFF2E2E2F647269766572732F66AE
S11337F0736C5F61646331362E633A3730203A204C
S1133800696E7374616E6365203C20415252415964
S11338105F53495A4528735F61646331364261736B
S1133820657329002E2E2F647269766572732F6674
S1133830736C5F61646331362E633A3737203A2004
S11338404E554C4C20213D20636F6E666967000025
S11338502E2E2F647269766572732F66736C5F61A6
S1133860646331362E633A313431203A204E554C5C
S11338704C20213D20636F6E666967002E2E2F64F5
S11338807269766572732F66736C5F616463313637
S11338902E633A333339203A206368616E6E656C67
S11338A047726F7570203C204144435F5343315F3E
S11338B0434F554E540000002E2E2F6472697665D6
S11338C072732F66736C5F61646331362E633A33AF
S11338D03430203A204E554C4C20213D20636F6EED
S11338E0666967002E2E2F647269766572732F667F
S11338F0736C5F61646331362E633A333631203A38
S1133900206368616E6E656C47726F7570203C2031
S11339104144435F5343315F434F554E5400FFFFCF
S11339202E2E2F647269766572732F66736C5F63D3
S11339306C6F636B2E633A323235203A20675F78BE
S113394074616C3046726571000000002E2E2F6485
S11339507269766572732F66736C5F636C6F636BE9
S11339602E633A333430203A20675F7874616C30C8
S113397046726571000000002E2E2F647269766510
S113398072732F66736C5F636C6F636B2E633A3371
S11339903630203A20675F7874616C333246726542
S11339A0710000002E2E2F647269766572732F6683
S11339B0736C5F636C6F636B2E633A353937203AEF
S11339C0206D6367706C6C30636C6B002E2E2F64FB
S11339D07269766572732F66736C5F636C6F636B69
S11339E02E633A373630203A20636F6E666967007B
S11339F02E2E2F647269766572732F66736C5F6303
S1133A006C6F636B2E633A31333830203A20636F26
S1133A106E666967000000002E2E2F647269766559
S1133A2072732F66736C5F636C6F636B2E633A31D2
S1133A30353439203A20636F6E66696700FFFFFFF3
S1133A400E0B00000E0B00002C0B0000B40B00004A
S1133A502C0B0000660B0000700B0000AA0B00008A
S1133A607A0B0000840B00008E0B0000980B000002
S1133A70B40B0000A20B00008002DC020005B805B4
S1133A8080079508000A710B2E2E2F6472697665E3
S1133A9072732F66736C5F6461632E633A363920E8
S1133AA03A20696E7374616E6365203C2041525202
S1133AB041595F53495A4528735F64616342617396
S1133AC0657329002E2E2F647269766572732F66D2
S1133AD0736C5F6461632E633A3736203A204E5527
S1133AE04C4C20213D20636F6E6669670000000026
S1133AF02E2E2F647269766572732F66736C5F6401
S1133B0061632E633A313134203A204E554C4C20B7
S1133B10213D20636F6E6669670000002E2E2F64BE
S1133B207269766572732F66736C5F6461632E636A
S1133B303A313232203A204E554C4C20213D2063FC
S1133B406F6E6669670000002E2E2F6472697665B9
S1133B5072732F66736C5F6461632E633A3135351B
S1133B60203A204E554C4C20213D20636F6E6669EF
S1133B70670000002E2E2F647269766572732F66BB
S1133B80736C5F6461632E633A313637203A20697F
S1133B906E646578203C204441435F4441544C5F4B
S1133BA0434F554E540000002E2E2F6472697665E3
S1133BB072732F66736C5F6461632E633A313735B9
S1133BC0203A20696E646578203C204441435F4478
S1133BD041544C5F434F554E5400FFFF2E2E2F642B
S1133BE07269766572732F66736C5F646D612E689B
S1133BF03A333633203A206368616E6E656C203C3C
S1133C002046534C5F464541545552455F444D410F
S1133C104D55585F4D4F44554C455F4348414E4EBA
S1133C20454C00002E2E2F647269766572732F66E0
S1133C30736C5F646D612E683A343733203A2063C5
S1133C4068616E6E656C203C2046534C5F4645416E
S1133C50545552455F444D414D55585F4D4F445561
S1133C604C455F4348414E4E454C00002E2E2F6478
S1133C707269766572732F66736C5F646D612E630F
S1133C803A3832203A20696E7374616E6365203C61
S1133C902041525241595F53495A4528735F646D1C
S1133CA061426173657329002E2E2F6472697665F3
S1133CB072732F66736C5F646D612E633A313033B7
S1133CC0203A206368616E6E656C203C2046534C3C
S1133CD05F464541545552455F444D415F4D4F4405
S1133CE0554C455F4348414E4E454C002E2E2F64A3
S1133CF07269766572732F66736C5F646D612E638F
S1133D003A313137203A206368616E6E656C203C2D
S1133D102046534C5F464541545552455F444D41FE
S1133D205F4D4F44554C455F4348414E4E454C0012
S1133D302E2E2F647269766572732F66736C5F64BE
S1133D406D612E633A313138203A20636F6E6669B3
S1133D506720213D204E554C4C0000002E2E2F6430
S1133D607269766572732F66736C5F646D612E631E
S1133D703A313338203A206368616E6E656C203CBA
S1133D802046534C5F464541545552455F444D418E
S1133D905F4D4F44554C455F4348414E4E454C00A2
S1133DA02E2E2F647269766572732F66736C5F644E
S1133DB06D612E633A313339203A20636F6E666940
S1133DC06720213D204E554C4C0000002E2E2F64C0
S1133DD07269766572732F66736C5F646D612E63AE
S1133DE03A313531203A206368616E6E656C203C4F
S1133DF02046534C5F464541545552455F444D411E
S1133E005F4D4F44554C455F4348414E4E454C0031
S1133E102E2E2F647269766572732F66736C5F64DD
S1133E206D612E633A313633203A2068616E646CDA
S1133E306520213D204E554C4C0000002E2E2F6451
S1133E407269766572732F66736C5F646D612E633D
S1133E503A313634203A206368616E6E656C203CDA
S1133E602046534C5F464541545552455F444D41AD
S1133E705F4D4F44554C455F4348414E4E454C00C1
S1133E802E2E2F647269766572732F66736C5F646D
S1133E906D612E633A313931203A20636F6E666961
S1133EA06720213D204E554C4C0000002E2E2F64DF
S1133EB07269766572732F66736C5F646D612E63CD
S1133EC03A313932203A207372634164647220219A
S1133ED03D204E554C4C00002E2E2F6472697665A1
S1133EE072732F66736C5F646D612E633A3139337C
S1133EF0203A20646573744164647220213D204E2D
S1133F00554C4C002E2E2F647269766572732F66A1
S1133F10736C5F646D612E633A313934203A202822
S1133F207372635769647468203D3D2031552920BC
S1133F307C7C20287372635769647468203D3D203B
S1133F40325529207C7C2028737263576964746815
S1133F50203D3D20345529002E2E2F64726976654C
S1133F6072732F66736C5F646D612E633A313935F9
S1133F70203A2028646573745769647468203D3D51
S1133F8020315529207C7C2028646573745769642A
S1133F907468203D3D20325529207C7C20286465AE
S1133FA073745769647468203D3D203455290000BA
S1133FB02E2E2F647269766572732F66736C5F643C
S1133FC06D612E633A323439203A2068616E646C34
S1133FD06520213D204E554C4C0000002E2E2F64B0
S1133FE07269766572732F66736C5F646D612E639C
S1133FF03A323537203A2068616E646C6520213D81
S1134000204E554C4C0000002E2E2F6472697665AC
S113401072732F66736C5F646D612E633A32353848
S1134020203A20636F6E66696720213D204E554C0F
S11340304C0000002E2E2F647269766572732F6611
S1134040736C5F646D612E633A323736203A2068B0
S1134050616E646C6520213D204E554C4C0000007F
S11340602E2E2F647269766572732F66736C5F648B
S11340706D612E633A323835203A2068616E646C83
S11340806520213D204E554C4C00FFFF2E2E2F6401
S11340907269766572732F66736C5F6770696F2ED1
S11340A0633A3638203A20696E7374616E63652012
S11340B03C2041525241595F53495A4528735F6726
S11340C070696F4261736573290000002E2E2F649E
S11340D07269766572732F66736C5F6770696F2E91
S11340E0633A3735203A20636F6E66696700FFFFD5
S11340F02E2E2F647269766572732F66736C5F70EF
S113410069742E633A3732203A20696E7374616E93
S11341106365203C2041525241595F53495A452816
S1134120735F706974426173657329002E2E2F6466
S11341307269766572732F66736C5F7069742E632F
S11341403A3739203A20636F6E66696700FFFFFFD4
S11341502E2E2F647269766572732F66736C5F738B
S113416070692E633A313437203A20696E73746172
S11341706E6365203C2041525241595F53495A4570
S113418028735F73706942617365732900000000CE
S11341902E2E2F647269766572732F66736C5F734B
S11341A070692E633A343130203A20636F6E666949
S11341B06720262620737263436C6F636B5F487AB3
S11341C0000000002E2E2F647269766572732F66CC
S11341D0736C5F7370692E633A343733203A20630B
S11341E06F6E6669670000002E2E2F647269766513
S11341F072732F66736C5F7370692E633A37333250
S1134200203A2078666572002E2E2F6472697665D6
S113421072732F66736C5F7370692E633A37393724
S1134220203A2068616E646C650000002E2E2F64B5
S11342307269766572732F66736C5F7370692E632F
S11342403A383234203A2068616E646C6520262640
S113425020786665720000002E2E2F6472697665E0
S113426072732F66736C5F7370692E633A383936D4
S1134270203A2068616E646C650000002E2E2F6465
S11342807269766572732F66736C5F7370692E63DF
S11342903A393232203A2068616E646C650000005D
S11342A02E2E2F647269766572732F66736C5F733A
S11342B070692E633A393438203A2068616E646C30
S11342C0650000002E2E2F647269766572732F6666
S11342D0736C5F7370692E633A393830203A206802
S11342E0616E646C650000002E2E2F647269766521
S11342F072732F66736C5F7370692E633A39393049
S1134300203A2068616E646C650000002E2E2F64D4
S11343107269766572732F66736C5F7370692E634E
S11343203A31303332203A20735F73706948616EDA
S1134330646C655B305D00002E2E2F6472697665B7
S113434072732F66736C5F7370692E633A31303405
S113435030203A20735F73706948616E646C655BEA
S1134360315D00FF443A5C5377697463685F45725A
S1134370676F6E6F6D69636F5C5377697463685FB1
S113438044655F446973746F7263696F6E5F4572ED
S1134390676F6E6F6D69636F5C30335F496E76650E
S11343A0737469676163696F6E5F795F4465736194
S11343B072726F6C6C6F5C30345F496D706C656DDC
S11343C0656E746163696F6E5F53575C5344444513
S11343D05C647269766572732F66736C5F61646383
S11343E031362E683A353032203A206368616E6E79
S11343F0656C47726F7570203C204144435F525F87
S1134400434F554E5400FFFF443A5C53776974633D
S1134410685F4572676F6E6F6D69636F5C53776930
S11344207463685F44655F446973746F7263696F32
S11344306E5F4572676F6E6F6D69636F5C30335F7B
S1134440496E7665737469676163696F6E5F795FDE
S11344504465736172726F6C6C6F5C30345F496D6C
S1134460706C656D656E746163696F6E5F53575CE4
S1134470534444455C647269766572732F66736C49
S11344805F706F72742E683A323538203A20636F49
S11344906E66696700FFFFFF443A5C537769746393
S11344A0685F4572676F6E6F6D69636F5C537769A0
S11344B07463685F44655F446973746F7263696FA2
S11344C06E5F4572676F6E6F6D69636F5C30335FEB
S11344D0496E7665737469676163696F6E5F795F4E
S11344E04465736172726F6C6C6F5C30345F496DDC
S11344F0706C656D656E746163696F6E5F53575C54
S1134500534444455C647269766572732F66736CB8
S11345105F7069742E683A313239203A20636F6EC5
S1134520666967002A2A2A2061737365727420669B
S113453061696C6564203A2000FFFFFF03000000FE
S11345402A2A2A205F437379735F616C6C6F63203E
S11345506661696C65640A0072007700286E756C88
S11345606C290030580030780030002D002B0030CA
S113457031323334353637383941424344454600C5
S113458030313233343536373839616263646566C5
S107459000FFFFFF26
S11345940080000000093D0000004001BC020A0044
S11345A401005C03FA0FFFFF14F1FF1F5AFFFFFF22
S10B45B401000000E803FFFF11
S9030101FA
